{
  "_format": "hh-sol-artifact-1",
  "contractName": "Marketplace",
  "sourceName": "contracts/Marketplace.sol",
  "abi": [
    {
      "inputs": [
        {
          "internalType": "address",
          "name": "_nftContractAddress",
          "type": "address"
        },
        {
          "internalType": "address",
          "name": "_tokenContractAddress",
          "type": "address"
        }
      ],
      "stateMutability": "nonpayable",
      "type": "constructor"
    },
    {
      "inputs": [
        {
          "internalType": "address",
          "name": "owner",
          "type": "address"
        }
      ],
      "name": "OwnableInvalidOwner",
      "type": "error"
    },
    {
      "inputs": [
        {
          "internalType": "address",
          "name": "account",
          "type": "address"
        }
      ],
      "name": "OwnableUnauthorizedAccount",
      "type": "error"
    },
    {
      "anonymous": false,
      "inputs": [
        {
          "indexed": true,
          "internalType": "uint256",
          "name": "tokenId",
          "type": "uint256"
        },
        {
          "indexed": true,
          "internalType": "address",
          "name": "seller",
          "type": "address"
        }
      ],
      "name": "ListingCancelled",
      "type": "event"
    },
    {
      "anonymous": false,
      "inputs": [
        {
          "indexed": true,
          "internalType": "uint256",
          "name": "tokenId",
          "type": "uint256"
        },
        {
          "indexed": true,
          "internalType": "address",
          "name": "buyer",
          "type": "address"
        },
        {
          "indexed": false,
          "internalType": "uint256",
          "name": "price",
          "type": "uint256"
        }
      ],
      "name": "NFTBought",
      "type": "event"
    },
    {
      "anonymous": false,
      "inputs": [
        {
          "indexed": true,
          "internalType": "uint256",
          "name": "tokenId",
          "type": "uint256"
        },
        {
          "indexed": true,
          "internalType": "address",
          "name": "seller",
          "type": "address"
        },
        {
          "indexed": false,
          "internalType": "uint256",
          "name": "price",
          "type": "uint256"
        }
      ],
      "name": "NFTListed",
      "type": "event"
    },
    {
      "anonymous": false,
      "inputs": [
        {
          "indexed": true,
          "internalType": "address",
          "name": "previousOwner",
          "type": "address"
        },
        {
          "indexed": true,
          "internalType": "address",
          "name": "newOwner",
          "type": "address"
        }
      ],
      "name": "OwnershipTransferred",
      "type": "event"
    },
    {
      "inputs": [
        {
          "internalType": "uint256",
          "name": "_tokenId",
          "type": "uint256"
        }
      ],
      "name": "buyItem",
      "outputs": [],
      "stateMutability": "nonpayable",
      "type": "function"
    },
    {
      "inputs": [
        {
          "internalType": "uint256",
          "name": "_tokenId",
          "type": "uint256"
        }
      ],
      "name": "cancelListing",
      "outputs": [],
      "stateMutability": "nonpayable",
      "type": "function"
    },
    {
      "inputs": [
        {
          "internalType": "uint256",
          "name": "_tokenId",
          "type": "uint256"
        },
        {
          "internalType": "uint256",
          "name": "_price",
          "type": "uint256"
        }
      ],
      "name": "listItem",
      "outputs": [],
      "stateMutability": "nonpayable",
      "type": "function"
    },
    {
      "inputs": [
        {
          "internalType": "uint256",
          "name": "",
          "type": "uint256"
        }
      ],
      "name": "listedItems",
      "outputs": [
        {
          "internalType": "uint256",
          "name": "tokenId",
          "type": "uint256"
        },
        {
          "internalType": "address",
          "name": "seller",
          "type": "address"
        },
        {
          "internalType": "uint256",
          "name": "price",
          "type": "uint256"
        },
        {
          "internalType": "bool",
          "name": "isListed",
          "type": "bool"
        }
      ],
      "stateMutability": "view",
      "type": "function"
    },
    {
      "inputs": [],
      "name": "nftContract",
      "outputs": [
        {
          "internalType": "contract MyNFT",
          "name": "",
          "type": "address"
        }
      ],
      "stateMutability": "view",
      "type": "function"
    },
    {
      "inputs": [],
      "name": "owner",
      "outputs": [
        {
          "internalType": "address",
          "name": "",
          "type": "address"
        }
      ],
      "stateMutability": "view",
      "type": "function"
    },
    {
      "inputs": [],
      "name": "renounceOwnership",
      "outputs": [],
      "stateMutability": "nonpayable",
      "type": "function"
    },
    {
      "inputs": [],
      "name": "tokenContract",
      "outputs": [
        {
          "internalType": "contract MyToken",
          "name": "",
          "type": "address"
        }
      ],
      "stateMutability": "view",
      "type": "function"
    },
    {
      "inputs": [
        {
          "internalType": "address",
          "name": "newOwner",
          "type": "address"
        }
      ],
      "name": "transferOwnership",
      "outputs": [],
      "stateMutability": "nonpayable",
      "type": "function"
    }
  ],
  "bytecode": "0x608060405234801561001057600080fd5b506040516117b63803806117b683398181016040528101906100329190610265565b33600073ffffffffffffffffffffffffffffffffffffffff168173ffffffffffffffffffffffffffffffffffffffff16036100a55760006040517f1e4fbdf700000000000000000000000000000000000000000000000000000000815260040161009c91906102b4565b60405180910390fd5b6100b48161013e60201b60201c565b5081600160006101000a81548173ffffffffffffffffffffffffffffffffffffffff021916908373ffffffffffffffffffffffffffffffffffffffff16021790555080600260006101000a81548173ffffffffffffffffffffffffffffffffffffffff021916908373ffffffffffffffffffffffffffffffffffffffff16021790555050506102cf565b60008060009054906101000a900473ffffffffffffffffffffffffffffffffffffffff169050816000806101000a81548173ffffffffffffffffffffffffffffffffffffffff021916908373ffffffffffffffffffffffffffffffffffffffff1602179055508173ffffffffffffffffffffffffffffffffffffffff168173ffffffffffffffffffffffffffffffffffffffff167f8be0079c531659141344cd1fd0a4f28419497f9722a3daafe3b4186f6b6457e060405160405180910390a35050565b600080fd5b600073ffffffffffffffffffffffffffffffffffffffff82169050919050565b600061023282610207565b9050919050565b61024281610227565b811461024d57600080fd5b50565b60008151905061025f81610239565b92915050565b6000806040838503121561027c5761027b610202565b5b600061028a85828601610250565b925050602061029b85828601610250565b9150509250929050565b6102ae81610227565b82525050565b60006020820190506102c960008301846102a5565b92915050565b6114d8806102de6000396000f3fe608060405234801561001057600080fd5b50600436106100935760003560e01c80638da5cb5b116100665780638da5cb5b146100f8578063d234706114610116578063d56d229d14610149578063e7fb74c714610167578063f2fde38b1461018357610093565b8063305a67a81461009857806355a373d6146100b4578063715018a6146100d2578063883efa67146100dc575b600080fd5b6100b260048036038101906100ad9190610e43565b61019f565b005b6100bc6103d3565b6040516100c99190610eef565b60405180910390f35b6100da6103f9565b005b6100f660048036038101906100f19190610f0a565b61040d565b005b610100610875565b60405161010d9190610f6b565b60405180910390f35b610130600480360381019061012b9190610e43565b61089e565b6040516101409493929190610fb0565b60405180910390f35b6101516108fb565b60405161015e9190611016565b60405180910390f35b610181600480360381019061017c9190610e43565b610921565b005b61019d6004803603810190610198919061105d565b610c2f565b005b60006003600083815260200190815260200160002090508060030160009054906101000a900460ff16610207576040517f08c379a00000000000000000000000000000000000000000000000000000000081526004016101fe906110e7565b60405180910390fd5b3373ffffffffffffffffffffffffffffffffffffffff168160010160009054906101000a900473ffffffffffffffffffffffffffffffffffffffff1673ffffffffffffffffffffffffffffffffffffffff1614610299576040517f08c379a000000000000000000000000000000000000000000000000000000000815260040161029090611153565b60405180910390fd5b600160009054906101000a900473ffffffffffffffffffffffffffffffffffffffff1673ffffffffffffffffffffffffffffffffffffffff166323b872dd3033856040518463ffffffff1660e01b81526004016102f893929190611173565b600060405180830381600087803b15801561031257600080fd5b505af1158015610326573d6000803e3d6000fd5b50505050600360008381526020019081526020016000206000808201600090556001820160006101000a81549073ffffffffffffffffffffffffffffffffffffffff021916905560028201600090556003820160006101000a81549060ff021916905550503373ffffffffffffffffffffffffffffffffffffffff16827f8e25282255ab31897df2b0456bb993ac7f84d376861aefd84901d2d63a7428a260405160405180910390a35050565b600260009054906101000a900473ffffffffffffffffffffffffffffffffffffffff1681565b610401610cb5565b61040b6000610d3c565b565b6003600083815260200190815260200160002060030160009054906101000a900460ff1615610471576040517f08c379a0000000000000000000000000000000000000000000000000000000008152600401610468906111f6565b60405180910390fd5b600081116104b4576040517f08c379a00000000000000000000000000000000000000000000000000000000081526004016104ab90611262565b60405180910390fd5b3373ffffffffffffffffffffffffffffffffffffffff16600160009054906101000a900473ffffffffffffffffffffffffffffffffffffffff1673ffffffffffffffffffffffffffffffffffffffff16636352211e846040518263ffffffff1660e01b81526004016105269190611282565b602060405180830381865afa158015610543573d6000803e3d6000fd5b505050506040513d601f19601f8201168201806040525081019061056791906112b2565b73ffffffffffffffffffffffffffffffffffffffff16146105bd576040517f08c379a00000000000000000000000000000000000000000000000000000000081526004016105b49061132b565b60405180910390fd5b3073ffffffffffffffffffffffffffffffffffffffff16600160009054906101000a900473ffffffffffffffffffffffffffffffffffffffff1673ffffffffffffffffffffffffffffffffffffffff1663081812fc846040518263ffffffff1660e01b815260040161062f9190611282565b602060405180830381865afa15801561064c573d6000803e3d6000fd5b505050506040513d601f19601f8201168201806040525081019061067091906112b2565b73ffffffffffffffffffffffffffffffffffffffff16146106c6576040517f08c379a00000000000000000000000000000000000000000000000000000000081526004016106bd906113bd565b60405180910390fd5b600160009054906101000a900473ffffffffffffffffffffffffffffffffffffffff1673ffffffffffffffffffffffffffffffffffffffff166323b872dd3330856040518463ffffffff1660e01b815260040161072593929190611173565b600060405180830381600087803b15801561073f57600080fd5b505af1158015610753573d6000803e3d6000fd5b5050505060405180608001604052808381526020013373ffffffffffffffffffffffffffffffffffffffff16815260200182815260200160011515815250600360008481526020019081526020016000206000820151816000015560208201518160010160006101000a81548173ffffffffffffffffffffffffffffffffffffffff021916908373ffffffffffffffffffffffffffffffffffffffff1602179055506040820151816002015560608201518160030160006101000a81548160ff0219169083151502179055509050503373ffffffffffffffffffffffffffffffffffffffff16827f5f9c03de076f5063cd3ebcfe8ef7aa8af378e4b35a83c77ba9777e97083879a2836040516108699190611282565b60405180910390a35050565b60008060009054906101000a900473ffffffffffffffffffffffffffffffffffffffff16905090565b60036020528060005260406000206000915090508060000154908060010160009054906101000a900473ffffffffffffffffffffffffffffffffffffffff16908060020154908060030160009054906101000a900460ff16905084565b600160009054906101000a900473ffffffffffffffffffffffffffffffffffffffff1681565b60006003600083815260200190815260200160002090508060030160009054906101000a900460ff16610989576040517f08c379a0000000000000000000000000000000000000000000000000000000008152600401610980906110e7565b60405180910390fd5b3373ffffffffffffffffffffffffffffffffffffffff168160010160009054906101000a900473ffffffffffffffffffffffffffffffffffffffff1673ffffffffffffffffffffffffffffffffffffffff1603610a1b576040517f08c379a0000000000000000000000000000000000000000000000000000000008152600401610a1290611429565b60405180910390fd5b600260009054906101000a900473ffffffffffffffffffffffffffffffffffffffff1673ffffffffffffffffffffffffffffffffffffffff166323b872dd338360010160009054906101000a900473ffffffffffffffffffffffffffffffffffffffff1684600201546040518463ffffffff1660e01b8152600401610aa293929190611173565b6020604051808303816000875af1158015610ac1573d6000803e3d6000fd5b505050506040513d601f19601f82011682018060405250810190610ae59190611475565b50600160009054906101000a900473ffffffffffffffffffffffffffffffffffffffff1673ffffffffffffffffffffffffffffffffffffffff166323b872dd3033856040518463ffffffff1660e01b8152600401610b4593929190611173565b600060405180830381600087803b158015610b5f57600080fd5b505af1158015610b73573d6000803e3d6000fd5b50505050600360008381526020019081526020016000206000808201600090556001820160006101000a81549073ffffffffffffffffffffffffffffffffffffffff021916905560028201600090556003820160006101000a81549060ff021916905550503373ffffffffffffffffffffffffffffffffffffffff16827f26701af1547d690b8c46ed5f0fbb8d5b115492b3b898f3dfc2e87b26cfcc1b148360020154604051610c239190611282565b60405180910390a35050565b610c37610cb5565b600073ffffffffffffffffffffffffffffffffffffffff168173ffffffffffffffffffffffffffffffffffffffff1603610ca95760006040517f1e4fbdf7000000000000000000000000000000000000000000000000000000008152600401610ca09190610f6b565b60405180910390fd5b610cb281610d3c565b50565b610cbd610e00565b73ffffffffffffffffffffffffffffffffffffffff16610cdb610875565b73ffffffffffffffffffffffffffffffffffffffff1614610d3a57610cfe610e00565b6040517f118cdaa7000000000000000000000000000000000000000000000000000000008152600401610d319190610f6b565b60405180910390fd5b565b60008060009054906101000a900473ffffffffffffffffffffffffffffffffffffffff169050816000806101000a81548173ffffffffffffffffffffffffffffffffffffffff021916908373ffffffffffffffffffffffffffffffffffffffff1602179055508173ffffffffffffffffffffffffffffffffffffffff168173ffffffffffffffffffffffffffffffffffffffff167f8be0079c531659141344cd1fd0a4f28419497f9722a3daafe3b4186f6b6457e060405160405180910390a35050565b600033905090565b600080fd5b6000819050919050565b610e2081610e0d565b8114610e2b57600080fd5b50565b600081359050610e3d81610e17565b92915050565b600060208284031215610e5957610e58610e08565b5b6000610e6784828501610e2e565b91505092915050565b600073ffffffffffffffffffffffffffffffffffffffff82169050919050565b6000819050919050565b6000610eb5610eb0610eab84610e70565b610e90565b610e70565b9050919050565b6000610ec782610e9a565b9050919050565b6000610ed982610ebc565b9050919050565b610ee981610ece565b82525050565b6000602082019050610f046000830184610ee0565b92915050565b60008060408385031215610f2157610f20610e08565b5b6000610f2f85828601610e2e565b9250506020610f4085828601610e2e565b9150509250929050565b6000610f5582610e70565b9050919050565b610f6581610f4a565b82525050565b6000602082019050610f806000830184610f5c565b92915050565b610f8f81610e0d565b82525050565b60008115159050919050565b610faa81610f95565b82525050565b6000608082019050610fc56000830187610f86565b610fd26020830186610f5c565b610fdf6040830185610f86565b610fec6060830184610fa1565b95945050505050565b600061100082610ebc565b9050919050565b61101081610ff5565b82525050565b600060208201905061102b6000830184611007565b92915050565b61103a81610f4a565b811461104557600080fd5b50565b60008135905061105781611031565b92915050565b60006020828403121561107357611072610e08565b5b600061108184828501611048565b91505092915050565b600082825260208201905092915050565b7f4974656d206973206e6f74206c69737465640000000000000000000000000000600082015250565b60006110d160128361108a565b91506110dc8261109b565b602082019050919050565b60006020820190508181036000830152611100816110c4565b9050919050565b7f596f7520617265206e6f74207468652073656c6c657200000000000000000000600082015250565b600061113d60168361108a565b915061114882611107565b602082019050919050565b6000602082019050818103600083015261116c81611130565b9050919050565b60006060820190506111886000830186610f5c565b6111956020830185610f5c565b6111a26040830184610f86565b949350505050565b7f4974656d20616c7265616479206c697374656400000000000000000000000000600082015250565b60006111e060138361108a565b91506111eb826111aa565b602082019050919050565b6000602082019050818103600083015261120f816111d3565b9050919050565b7f5072696365206d7573742062652067726561746572207468616e203000000000600082015250565b600061124c601c8361108a565b915061125782611216565b602082019050919050565b6000602082019050818103600083015261127b8161123f565b9050919050565b60006020820190506112976000830184610f86565b92915050565b6000815190506112ac81611031565b92915050565b6000602082840312156112c8576112c7610e08565b5b60006112d68482850161129d565b91505092915050565b7f596f7520646f206e6f74206f776e2074686973204e4654000000000000000000600082015250565b600061131560178361108a565b9150611320826112df565b602082019050919050565b6000602082019050818103600083015261134481611308565b9050919050565b7f4d61726b6574706c616365206d75737420626520617070726f76656420746f2060008201527f7472616e73666572204e46540000000000000000000000000000000000000000602082015250565b60006113a7602c8361108a565b91506113b28261134b565b604082019050919050565b600060208201905081810360008301526113d68161139a565b9050919050565b7f43616e6e6f742062757920796f7572206f776e206974656d0000000000000000600082015250565b600061141360188361108a565b915061141e826113dd565b602082019050919050565b6000602082019050818103600083015261144281611406565b9050919050565b61145281610f95565b811461145d57600080fd5b50565b60008151905061146f81611449565b92915050565b60006020828403121561148b5761148a610e08565b5b600061149984828501611460565b9150509291505056fea26469706673582212207159a51011c975c79a51e70cef538903ad63b710900d272c43c76fa07df40e7b64736f6c634300081c0033",
  "linkReferences": {},
  "deployedLinkReferences": {}
}